{
  "_format": "hh-sol-artifact-1",
  "contractName": "Storage",
  "sourceName": "contracts/Storage.sol",
  "abi": [
    {
      "inputs": [],
      "stateMutability": "nonpayable",
      "type": "constructor"
    },
    {
      "inputs": [],
      "name": "getNumber",
      "outputs": [
        {
          "internalType": "uint256",
          "name": "",
          "type": "uint256"
        }
      ],
      "stateMutability": "view",
      "type": "function"
    },
    {
      "inputs": [],
      "name": "getOwner",
      "outputs": [
        {
          "internalType": "address",
          "name": "",
          "type": "address"
        }
      ],
      "stateMutability": "view",
      "type": "function"
    },
    {
      "inputs": [
        {
          "internalType": "address",
          "name": "_owner",
          "type": "address"
        },
        {
          "internalType": "uint256",
          "name": "number",
          "type": "uint256"
        }
      ],
      "name": "initialize",
      "outputs": [],
      "stateMutability": "nonpayable",
      "type": "function"
    },
    {
      "inputs": [
        {
          "internalType": "uint256",
          "name": "newNumber",
          "type": "uint256"
        }
      ],
      "name": "setNumber",
      "outputs": [],
      "stateMutability": "nonpayable",
      "type": "function"
    }
  ],
  "bytecode": "0x608060405234801561001057600080fd5b506001600260146101000a81548160ff0219169083151502179055506107678061003b6000396000f3fe608060405234801561001057600080fd5b506004361061004c5760003560e01c80633fb5c1cb14610051578063893d20e81461006d578063cd6dc6871461008b578063f2c9ecd8146100a7575b600080fd5b61006b6004803603810190610066919061043d565b6100c5565b005b6100756101f1565b6040516100829190610510565b60405180910390f35b6100a560048036038101906100a09190610401565b61021b565b005b6100af610399565b6040516100bc91906105ab565b60405180910390f35b600073ffffffffffffffffffffffffffffffffffffffff16600260009054906101000a900473ffffffffffffffffffffffffffffffffffffffff1673ffffffffffffffffffffffffffffffffffffffff161415610157576040517f08c379a000000000000000000000000000000000000000000000000000000000815260040161014e9061058b565b60405180910390fd5b600260009054906101000a900473ffffffffffffffffffffffffffffffffffffffff1673ffffffffffffffffffffffffffffffffffffffff163373ffffffffffffffffffffffffffffffffffffffff16146101e7576040517f08c379a00000000000000000000000000000000000000000000000000000000081526004016101de9061056b565b60405180910390fd5b8060018190555050565b6000600260009054906101000a900473ffffffffffffffffffffffffffffffffffffffff16905090565b600060019054906101000a900460ff166102435760008054906101000a900460ff161561024c565b61024b6103a3565b5b61028b576040517f08c379a00000000000000000000000000000000000000000000000000000000081526004016102829061054b565b60405180910390fd5b60008060019054906101000a900460ff1615905080156102db576001600060016101000a81548160ff02191690831515021790555060016000806101000a81548160ff0219169083151502179055505b600260149054906101000a900460ff161561032b576040517f08c379a00000000000000000000000000000000000000000000000000000000081526004016103229061052b565b60405180910390fd5b82600260006101000a81548173ffffffffffffffffffffffffffffffffffffffff021916908373ffffffffffffffffffffffffffffffffffffffff1602179055508160018190555080156103945760008060016101000a81548160ff0219169083151502179055505b505050565b6000600154905090565b60006103ae306103b4565b15905090565b6000808273ffffffffffffffffffffffffffffffffffffffff163b119050919050565b6000813590506103e681610703565b92915050565b6000813590506103fb8161071a565b92915050565b6000806040838503121561041457600080fd5b6000610422858286016103d7565b9250506020610433858286016103ec565b9150509250929050565b60006020828403121561044f57600080fd5b600061045d848285016103ec565b91505092915050565b61046f816105d7565b82525050565b60006104826029836105c6565b915061048d82610613565b604082019050919050565b60006104a5602e836105c6565b91506104b082610662565b604082019050919050565b60006104c86014836105c6565b91506104d3826106b1565b602082019050919050565b60006104eb601d836105c6565b91506104f6826106da565b602082019050919050565b61050a81610609565b82525050565b60006020820190506105256000830184610466565b92915050565b6000602082019050818103600083015261054481610475565b9050919050565b6000602082019050818103600083015261056481610498565b9050919050565b60006020820190508181036000830152610584816104bb565b9050919050565b600060208201905081810360008301526105a4816104de565b9050919050565b60006020820190506105c06000830184610501565b92915050565b600082825260208201905092915050565b60006105e2826105e9565b9050919050565b600073ffffffffffffffffffffffffffffffffffffffff82169050919050565b6000819050919050565b7f546865206261736520636f6e74726163742063616e2774206265207265696e6960008201527f7469616c697a6564210000000000000000000000000000000000000000000000602082015250565b7f496e697469616c697a61626c653a20636f6e747261637420697320616c72656160008201527f647920696e697469616c697a6564000000000000000000000000000000000000602082015250565b7f4f6e6c79206f776e65722063616e2063616c6c21000000000000000000000000600082015250565b7f4f776e6572206973206e6f7420696e697469616c697a65642079657421000000600082015250565b61070c816105d7565b811461071757600080fd5b50565b61072381610609565b811461072e57600080fd5b5056fea2646970667358221220e473a54c598e107ac850dfa9238afeb62cc6e3b08541f6dc851ed46d9311de1964736f6c63430008030033",
  "linkReferences": {},
  "deployedLinkReferences": {}
}