{
  "_format": "hh-sol-artifact-1",
  "contractName": "Storage",
  "sourceName": "contracts/Storage.sol",
  "abi": [
    {
      "inputs": [],
      "stateMutability": "nonpayable",
      "type": "constructor"
    },
    {
      "inputs": [],
      "name": "getOwner",
      "outputs": [
        {
          "internalType": "address",
          "name": "",
          "type": "address"
        }
      ],
      "stateMutability": "view",
      "type": "function"
    },
    {
      "inputs": [
        {
          "internalType": "address",
          "name": "_owner",
          "type": "address"
        }
      ],
      "name": "initialize",
      "outputs": [],
      "stateMutability": "nonpayable",
      "type": "function"
    },
    {
      "inputs": [
        {
          "internalType": "uint256",
          "name": "newNumber",
          "type": "uint256"
        }
      ],
      "name": "setNumber",
      "outputs": [],
      "stateMutability": "nonpayable",
      "type": "function"
    }
  ],
  "bytecode": "0x608060405234801561001057600080fd5b506001600260146101000a81548160ff0219169083151502179055506105f18061003b6000396000f3fe608060405234801561001057600080fd5b50600436106100415760003560e01c80633fb5c1cb14610046578063893d20e814610062578063c4d66de814610080575b600080fd5b610060600480360381019061005b919061035d565b61009c565b005b61006a610136565b60405161007791906103fe565b60405180910390f35b61009a60048036038101906100959190610334565b610160565b005b600260009054906101000a900473ffffffffffffffffffffffffffffffffffffffff1673ffffffffffffffffffffffffffffffffffffffff163373ffffffffffffffffffffffffffffffffffffffff161461012c576040517f08c379a000000000000000000000000000000000000000000000000000000000815260040161012390610459565b60405180910390fd5b8060018190555050565b6000600260009054906101000a900473ffffffffffffffffffffffffffffffffffffffff16905090565b600060019054906101000a900460ff166101885760008054906101000a900460ff1615610191565b6101906102d6565b5b6101d0576040517f08c379a00000000000000000000000000000000000000000000000000000000081526004016101c790610439565b60405180910390fd5b60008060019054906101000a900460ff161590508015610220576001600060016101000a81548160ff02191690831515021790555060016000806101000a81548160ff0219169083151502179055505b600260149054906101000a900460ff1615610270576040517f08c379a000000000000000000000000000000000000000000000000000000000815260040161026790610419565b60405180910390fd5b81600260006101000a81548173ffffffffffffffffffffffffffffffffffffffff021916908373ffffffffffffffffffffffffffffffffffffffff16021790555080156102d25760008060016101000a81548160ff0219169083151502179055505b5050565b60006102e1306102e7565b15905090565b6000808273ffffffffffffffffffffffffffffffffffffffff163b119050919050565b6000813590506103198161058d565b92915050565b60008135905061032e816105a4565b92915050565b60006020828403121561034657600080fd5b60006103548482850161030a565b91505092915050565b60006020828403121561036f57600080fd5b600061037d8482850161031f565b91505092915050565b61038f8161048a565b82525050565b60006103a2602983610479565b91506103ad826104c6565b604082019050919050565b60006103c5602e83610479565b91506103d082610515565b604082019050919050565b60006103e8601483610479565b91506103f382610564565b602082019050919050565b60006020820190506104136000830184610386565b92915050565b6000602082019050818103600083015261043281610395565b9050919050565b60006020820190508181036000830152610452816103b8565b9050919050565b60006020820190508181036000830152610472816103db565b9050919050565b600082825260208201905092915050565b60006104958261049c565b9050919050565b600073ffffffffffffffffffffffffffffffffffffffff82169050919050565b6000819050919050565b7f546865206261736520636f6e74726163742063616e2774206265207265696e6960008201527f7469616c697a6564210000000000000000000000000000000000000000000000602082015250565b7f496e697469616c697a61626c653a20636f6e747261637420697320616c72656160008201527f647920696e697469616c697a6564000000000000000000000000000000000000602082015250565b7f4f6e6c79206f776e65722063616e2063616c6c21000000000000000000000000600082015250565b6105968161048a565b81146105a157600080fd5b50565b6105ad816104bc565b81146105b857600080fd5b5056fea264697066735822122097f86893549d0918a5e8c4faf18aacb792779fd02f6f6676e135e95a03159d7964736f6c63430008030033",
  "linkReferences": {},
  "deployedLinkReferences": {}
}