{
  "_format": "hh-sol-artifact-1",
  "contractName": "StorageFactory",
  "sourceName": "contracts/StorageFactory.sol",
  "abi": [
    {
      "inputs": [],
      "stateMutability": "nonpayable",
      "type": "constructor"
    },
    {
      "anonymous": false,
      "inputs": [
        {
          "indexed": false,
          "internalType": "address",
          "name": "storageAddress",
          "type": "address"
        },
        {
          "indexed": false,
          "internalType": "address",
          "name": "owner",
          "type": "address"
        },
        {
          "indexed": false,
          "internalType": "uint256",
          "name": "number",
          "type": "uint256"
        },
        {
          "indexed": false,
          "internalType": "uint256",
          "name": "storageId",
          "type": "uint256"
        }
      ],
      "name": "CreateStorage",
      "type": "event"
    },
    {
      "inputs": [
        {
          "internalType": "uint256",
          "name": "number",
          "type": "uint256"
        }
      ],
      "name": "createStorage",
      "outputs": [
        {
          "internalType": "address",
          "name": "newStorage",
          "type": "address"
        }
      ],
      "stateMutability": "nonpayable",
      "type": "function"
    },
    {
      "inputs": [],
      "name": "getBaseStorage",
      "outputs": [
        {
          "internalType": "address",
          "name": "",
          "type": "address"
        }
      ],
      "stateMutability": "view",
      "type": "function"
    },
    {
      "inputs": [
        {
          "internalType": "uint256",
          "name": "id",
          "type": "uint256"
        }
      ],
      "name": "getStorage",
      "outputs": [
        {
          "internalType": "address[]",
          "name": "",
          "type": "address[]"
        }
      ],
      "stateMutability": "view",
      "type": "function"
    }
  ],
  "bytecode": "0x608060405234801561001057600080fd5b50600060405161001f9061008c565b604051809103906000f08015801561003b573d6000803e3d6000fd5b509050806000806101000a81548173ffffffffffffffffffffffffffffffffffffffff021916908373ffffffffffffffffffffffffffffffffffffffff160217905550600060018190555050610099565b6107a2806107c883390190565b610720806100a86000396000f3fe608060405234801561001057600080fd5b50600436106100415760003560e01c806360264dc51461004657806365fd4772146100765780638b809833146100a6575b600080fd5b610060600480360381019061005b91906103e5565b6100c4565b60405161006d91906104d4565b60405180910390f35b610090600480360381019061008b91906103e5565b610231565b60405161009d919061055d565b60405180910390f35b6100ae6102d2565b6040516100bb91906104d4565b60405180910390f35b60006100ef60008054906101000a900473ffffffffffffffffffffffffffffffffffffffff166102fb565b90508073ffffffffffffffffffffffffffffffffffffffff1663cd6dc68733846040518363ffffffff1660e01b815260040161012c929190610534565b600060405180830381600087803b15801561014657600080fd5b505af115801561015a573d6000803e3d6000fd5b50505050600180600082825461017091906105e9565b925050819055507f974c8d7a4fd4eebbb633bfeea2a3a250613ba87dc9c5119e12a9803131f0f5cf8133846001546040516101ae94939291906104ef565b60405180910390a1600260006001548152602001908152602001600020819080600181540180825580915050600190039060005260206000200160009091909190916101000a81548173ffffffffffffffffffffffffffffffffffffffff021916908373ffffffffffffffffffffffffffffffffffffffff160217905550919050565b6060600260008381526020019081526020016000208054806020026020016040519081016040528092919081815260200182805480156102c657602002820191906000526020600020905b8160009054906101000a900473ffffffffffffffffffffffffffffffffffffffff1673ffffffffffffffffffffffffffffffffffffffff168152602001906001019080831161027c575b50505050509050919050565b60008060009054906101000a900473ffffffffffffffffffffffffffffffffffffffff16905090565b60006040517f3d602d80600a3d3981f3363d3d373d3d3d363d7300000000000000000000000081528260601b60148201527f5af43d82803e903d91602b57fd5bf3000000000000000000000000000000000060288201526037816000f0915050600073ffffffffffffffffffffffffffffffffffffffff168173ffffffffffffffffffffffffffffffffffffffff1614156103cb576040517f08c379a00000000000000000000000000000000000000000000000000000000081526004016103c29061057f565b60405180910390fd5b919050565b6000813590506103df816106d3565b92915050565b6000602082840312156103f757600080fd5b6000610405848285016103d0565b91505092915050565b600061041a8383610426565b60208301905092915050565b61042f8161063f565b82525050565b61043e8161063f565b82525050565b600061044f826105af565b61045981856105c7565b93506104648361059f565b8060005b8381101561049557815161047c888261040e565b9750610487836105ba565b925050600181019050610468565b5085935050505092915050565b60006104af6016836105d8565b91506104ba826106aa565b602082019050919050565b6104ce81610671565b82525050565b60006020820190506104e96000830184610435565b92915050565b60006080820190506105046000830187610435565b6105116020830186610435565b61051e60408301856104c5565b61052b60608301846104c5565b95945050505050565b60006040820190506105496000830185610435565b61055660208301846104c5565b9392505050565b600060208201905081810360008301526105778184610444565b905092915050565b60006020820190508181036000830152610598816104a2565b9050919050565b6000819050602082019050919050565b600081519050919050565b6000602082019050919050565b600082825260208201905092915050565b600082825260208201905092915050565b60006105f482610671565b91506105ff83610671565b9250827fffffffffffffffffffffffffffffffffffffffffffffffffffffffffffffffff038211156106345761063361067b565b5b828201905092915050565b600061064a82610651565b9050919050565b600073ffffffffffffffffffffffffffffffffffffffff82169050919050565b6000819050919050565b7f4e487b7100000000000000000000000000000000000000000000000000000000600052601160045260246000fd5b7f455243313136373a20637265617465206661696c656400000000000000000000600082015250565b6106dc81610671565b81146106e757600080fd5b5056fea2646970667358221220ec5691b951d6734c20496ff2ccfb5e03cae805a2c020bf3698005620a73e713e64736f6c63430008030033608060405234801561001057600080fd5b506001600260146101000a81548160ff0219169083151502179055506107678061003b6000396000f3fe608060405234801561001057600080fd5b506004361061004c5760003560e01c80633fb5c1cb14610051578063893d20e81461006d578063cd6dc6871461008b578063f2c9ecd8146100a7575b600080fd5b61006b6004803603810190610066919061043d565b6100c5565b005b6100756101f1565b6040516100829190610510565b60405180910390f35b6100a560048036038101906100a09190610401565b61021b565b005b6100af610399565b6040516100bc91906105ab565b60405180910390f35b600073ffffffffffffffffffffffffffffffffffffffff16600260009054906101000a900473ffffffffffffffffffffffffffffffffffffffff1673ffffffffffffffffffffffffffffffffffffffff161415610157576040517f08c379a000000000000000000000000000000000000000000000000000000000815260040161014e9061058b565b60405180910390fd5b600260009054906101000a900473ffffffffffffffffffffffffffffffffffffffff1673ffffffffffffffffffffffffffffffffffffffff163373ffffffffffffffffffffffffffffffffffffffff16146101e7576040517f08c379a00000000000000000000000000000000000000000000000000000000081526004016101de9061056b565b60405180910390fd5b8060018190555050565b6000600260009054906101000a900473ffffffffffffffffffffffffffffffffffffffff16905090565b600060019054906101000a900460ff166102435760008054906101000a900460ff161561024c565b61024b6103a3565b5b61028b576040517f08c379a00000000000000000000000000000000000000000000000000000000081526004016102829061054b565b60405180910390fd5b60008060019054906101000a900460ff1615905080156102db576001600060016101000a81548160ff02191690831515021790555060016000806101000a81548160ff0219169083151502179055505b600260149054906101000a900460ff161561032b576040517f08c379a00000000000000000000000000000000000000000000000000000000081526004016103229061052b565b60405180910390fd5b82600260006101000a81548173ffffffffffffffffffffffffffffffffffffffff021916908373ffffffffffffffffffffffffffffffffffffffff1602179055508160018190555080156103945760008060016101000a81548160ff0219169083151502179055505b505050565b6000600154905090565b60006103ae306103b4565b15905090565b6000808273ffffffffffffffffffffffffffffffffffffffff163b119050919050565b6000813590506103e681610703565b92915050565b6000813590506103fb8161071a565b92915050565b6000806040838503121561041457600080fd5b6000610422858286016103d7565b9250506020610433858286016103ec565b9150509250929050565b60006020828403121561044f57600080fd5b600061045d848285016103ec565b91505092915050565b61046f816105d7565b82525050565b60006104826029836105c6565b915061048d82610613565b604082019050919050565b60006104a5602e836105c6565b91506104b082610662565b604082019050919050565b60006104c86014836105c6565b91506104d3826106b1565b602082019050919050565b60006104eb601d836105c6565b91506104f6826106da565b602082019050919050565b61050a81610609565b82525050565b60006020820190506105256000830184610466565b92915050565b6000602082019050818103600083015261054481610475565b9050919050565b6000602082019050818103600083015261056481610498565b9050919050565b60006020820190508181036000830152610584816104bb565b9050919050565b600060208201905081810360008301526105a4816104de565b9050919050565b60006020820190506105c06000830184610501565b92915050565b600082825260208201905092915050565b60006105e2826105e9565b9050919050565b600073ffffffffffffffffffffffffffffffffffffffff82169050919050565b6000819050919050565b7f546865206261736520636f6e74726163742063616e2774206265207265696e6960008201527f7469616c697a6564210000000000000000000000000000000000000000000000602082015250565b7f496e697469616c697a61626c653a20636f6e747261637420697320616c72656160008201527f647920696e697469616c697a6564000000000000000000000000000000000000602082015250565b7f4f6e6c79206f776e65722063616e2063616c6c21000000000000000000000000600082015250565b7f4f776e6572206973206e6f7420696e697469616c697a65642079657421000000600082015250565b61070c816105d7565b811461071757600080fd5b50565b61072381610609565b811461072e57600080fd5b5056fea2646970667358221220e473a54c598e107ac850dfa9238afeb62cc6e3b08541f6dc851ed46d9311de1964736f6c63430008030033",
  "linkReferences": {},
  "deployedLinkReferences": {}
}