{
  "_format": "hh-sol-artifact-1",
  "contractName": "StorageFactory",
  "sourceName": "contracts/StorageFactory.sol",
  "abi": [
    {
      "inputs": [],
      "stateMutability": "nonpayable",
      "type": "constructor"
    },
    {
      "anonymous": false,
      "inputs": [
        {
          "indexed": false,
          "internalType": "address",
          "name": "storageAddress",
          "type": "address"
        },
        {
          "indexed": false,
          "internalType": "address",
          "name": "owner",
          "type": "address"
        },
        {
          "indexed": false,
          "internalType": "uint256",
          "name": "number",
          "type": "uint256"
        }
      ],
      "name": "CreateStorage",
      "type": "event"
    },
    {
      "inputs": [
        {
          "internalType": "uint256",
          "name": "number",
          "type": "uint256"
        }
      ],
      "name": "createStorage",
      "outputs": [
        {
          "internalType": "address",
          "name": "newStorage",
          "type": "address"
        }
      ],
      "stateMutability": "nonpayable",
      "type": "function"
    },
    {
      "inputs": [
        {
          "internalType": "address",
          "name": "owner",
          "type": "address"
        }
      ],
      "name": "getStorage",
      "outputs": [
        {
          "internalType": "address[]",
          "name": "",
          "type": "address[]"
        }
      ],
      "stateMutability": "view",
      "type": "function"
    }
  ],
  "bytecode": "0x608060405234801561001057600080fd5b50600060405161001f90610084565b604051809103906000f08015801561003b573d6000803e3d6000fd5b509050806000806101000a81548173ffffffffffffffffffffffffffffffffffffffff021916908373ffffffffffffffffffffffffffffffffffffffff16021790555050610091565b6107a28061076983390190565b6106c9806100a06000396000f3fe608060405234801561001057600080fd5b50600436106100365760003560e01c806360264dc51461003b578063dc5dab091461006b575b600080fd5b6100556004803603810190610050919061040a565b61009b565b60405161006291906104f9565b60405180910390f35b610085600480360381019061008091906103e1565b610215565b6040516100929190610574565b60405180910390f35b60006100c660008054906101000a900473ffffffffffffffffffffffffffffffffffffffff166102e2565b90508073ffffffffffffffffffffffffffffffffffffffff1663cd6dc68733846040518363ffffffff1660e01b815260040161010392919061054b565b600060405180830381600087803b15801561011d57600080fd5b505af1158015610131573d6000803e3d6000fd5b505050507fcc1ca6d8aab2a88eb01b1f98ee3a5a0b5b0307384ac2c381c7fca6931f5e10b681338460405161016893929190610514565b60405180910390a1600160003373ffffffffffffffffffffffffffffffffffffffff1673ffffffffffffffffffffffffffffffffffffffff168152602001908152602001600020819080600181540180825580915050600190039060005260206000200160009091909190916101000a81548173ffffffffffffffffffffffffffffffffffffffff021916908373ffffffffffffffffffffffffffffffffffffffff160217905550919050565b6060600160008373ffffffffffffffffffffffffffffffffffffffff1673ffffffffffffffffffffffffffffffffffffffff1681526020019081526020016000208054806020026020016040519081016040528092919081815260200182805480156102d657602002820191906000526020600020905b8160009054906101000a900473ffffffffffffffffffffffffffffffffffffffff1673ffffffffffffffffffffffffffffffffffffffff168152602001906001019080831161028c575b50505050509050919050565b60006040517f3d602d80600a3d3981f3363d3d373d3d3d363d7300000000000000000000000081528260601b60148201527f5af43d82803e903d91602b57fd5bf3000000000000000000000000000000000060288201526037816000f0915050600073ffffffffffffffffffffffffffffffffffffffff168173ffffffffffffffffffffffffffffffffffffffff1614156103b2576040517f08c379a00000000000000000000000000000000000000000000000000000000081526004016103a990610596565b60405180910390fd5b919050565b6000813590506103c681610665565b92915050565b6000813590506103db8161067c565b92915050565b6000602082840312156103f357600080fd5b6000610401848285016103b7565b91505092915050565b60006020828403121561041c57600080fd5b600061042a848285016103cc565b91505092915050565b600061043f838361044b565b60208301905092915050565b61045481610600565b82525050565b61046381610600565b82525050565b6000610474826105c6565b61047e81856105de565b9350610489836105b6565b8060005b838110156104ba5781516104a18882610433565b97506104ac836105d1565b92505060018101905061048d565b5085935050505092915050565b60006104d46016836105ef565b91506104df8261063c565b602082019050919050565b6104f381610632565b82525050565b600060208201905061050e600083018461045a565b92915050565b6000606082019050610529600083018661045a565b610536602083018561045a565b61054360408301846104ea565b949350505050565b6000604082019050610560600083018561045a565b61056d60208301846104ea565b9392505050565b6000602082019050818103600083015261058e8184610469565b905092915050565b600060208201905081810360008301526105af816104c7565b9050919050565b6000819050602082019050919050565b600081519050919050565b6000602082019050919050565b600082825260208201905092915050565b600082825260208201905092915050565b600061060b82610612565b9050919050565b600073ffffffffffffffffffffffffffffffffffffffff82169050919050565b6000819050919050565b7f455243313136373a20637265617465206661696c656400000000000000000000600082015250565b61066e81610600565b811461067957600080fd5b50565b61068581610632565b811461069057600080fd5b5056fea2646970667358221220d17a41e6a934e63c3bddfd68e86578f403f0a911a203336e50ebb39baa9c40d164736f6c63430008030033608060405234801561001057600080fd5b506001600260146101000a81548160ff0219169083151502179055506107678061003b6000396000f3fe608060405234801561001057600080fd5b506004361061004c5760003560e01c80633fb5c1cb14610051578063893d20e81461006d578063cd6dc6871461008b578063f2c9ecd8146100a7575b600080fd5b61006b6004803603810190610066919061043d565b6100c5565b005b6100756101f1565b6040516100829190610510565b60405180910390f35b6100a560048036038101906100a09190610401565b61021b565b005b6100af610399565b6040516100bc91906105ab565b60405180910390f35b600073ffffffffffffffffffffffffffffffffffffffff16600260009054906101000a900473ffffffffffffffffffffffffffffffffffffffff1673ffffffffffffffffffffffffffffffffffffffff161415610157576040517f08c379a000000000000000000000000000000000000000000000000000000000815260040161014e9061058b565b60405180910390fd5b600260009054906101000a900473ffffffffffffffffffffffffffffffffffffffff1673ffffffffffffffffffffffffffffffffffffffff163373ffffffffffffffffffffffffffffffffffffffff16146101e7576040517f08c379a00000000000000000000000000000000000000000000000000000000081526004016101de9061056b565b60405180910390fd5b8060018190555050565b6000600260009054906101000a900473ffffffffffffffffffffffffffffffffffffffff16905090565b600060019054906101000a900460ff166102435760008054906101000a900460ff161561024c565b61024b6103a3565b5b61028b576040517f08c379a00000000000000000000000000000000000000000000000000000000081526004016102829061054b565b60405180910390fd5b60008060019054906101000a900460ff1615905080156102db576001600060016101000a81548160ff02191690831515021790555060016000806101000a81548160ff0219169083151502179055505b600260149054906101000a900460ff161561032b576040517f08c379a00000000000000000000000000000000000000000000000000000000081526004016103229061052b565b60405180910390fd5b82600260006101000a81548173ffffffffffffffffffffffffffffffffffffffff021916908373ffffffffffffffffffffffffffffffffffffffff1602179055508160018190555080156103945760008060016101000a81548160ff0219169083151502179055505b505050565b6000600154905090565b60006103ae306103b4565b15905090565b6000808273ffffffffffffffffffffffffffffffffffffffff163b119050919050565b6000813590506103e681610703565b92915050565b6000813590506103fb8161071a565b92915050565b6000806040838503121561041457600080fd5b6000610422858286016103d7565b9250506020610433858286016103ec565b9150509250929050565b60006020828403121561044f57600080fd5b600061045d848285016103ec565b91505092915050565b61046f816105d7565b82525050565b60006104826029836105c6565b915061048d82610613565b604082019050919050565b60006104a5602e836105c6565b91506104b082610662565b604082019050919050565b60006104c86014836105c6565b91506104d3826106b1565b602082019050919050565b60006104eb601d836105c6565b91506104f6826106da565b602082019050919050565b61050a81610609565b82525050565b60006020820190506105256000830184610466565b92915050565b6000602082019050818103600083015261054481610475565b9050919050565b6000602082019050818103600083015261056481610498565b9050919050565b60006020820190508181036000830152610584816104bb565b9050919050565b600060208201905081810360008301526105a4816104de565b9050919050565b60006020820190506105c06000830184610501565b92915050565b600082825260208201905092915050565b60006105e2826105e9565b9050919050565b600073ffffffffffffffffffffffffffffffffffffffff82169050919050565b6000819050919050565b7f546865206261736520636f6e74726163742063616e2774206265207265696e6960008201527f7469616c697a6564210000000000000000000000000000000000000000000000602082015250565b7f496e697469616c697a61626c653a20636f6e747261637420697320616c72656160008201527f647920696e697469616c697a6564000000000000000000000000000000000000602082015250565b7f4f6e6c79206f776e65722063616e2063616c6c21000000000000000000000000600082015250565b7f4f776e6572206973206e6f7420696e697469616c697a65642079657421000000600082015250565b61070c816105d7565b811461071757600080fd5b50565b61072381610609565b811461072e57600080fd5b5056fea2646970667358221220e473a54c598e107ac850dfa9238afeb62cc6e3b08541f6dc851ed46d9311de1964736f6c63430008030033",
  "linkReferences": {},
  "deployedLinkReferences": {}
}